{
  "_format": "hh-sol-artifact-1",
  "contractName": "AuctionFactory",
  "sourceName": "contracts/AuctionFactory.sol",
  "abi": [
    {
      "inputs": [],
      "stateMutability": "nonpayable",
      "type": "constructor"
    },
    {
      "anonymous": false,
      "inputs": [
        {
          "indexed": true,
          "internalType": "address",
          "name": "auction",
          "type": "address"
        },
        {
          "indexed": true,
          "internalType": "address",
          "name": "nft",
          "type": "address"
        },
        {
          "indexed": false,
          "internalType": "uint256",
          "name": "tokenId",
          "type": "uint256"
        }
      ],
      "name": "AuctionCreated",
      "type": "event"
    },
    {
      "inputs": [
        {
          "internalType": "uint256",
          "name": "",
          "type": "uint256"
        }
      ],
      "name": "allAuctions",
      "outputs": [
        {
          "internalType": "address",
          "name": "",
          "type": "address"
        }
      ],
      "stateMutability": "view",
      "type": "function"
    },
    {
      "inputs": [
        {
          "internalType": "address",
          "name": "nftAddress",
          "type": "address"
        },
        {
          "internalType": "uint256",
          "name": "tokenId",
          "type": "uint256"
        },
        {
          "internalType": "address",
          "name": "paymentToken",
          "type": "address"
        },
        {
          "internalType": "address",
          "name": "ethUsdPriceFeed",
          "type": "address"
        },
        {
          "internalType": "address",
          "name": "erc20UsdPriceFeed",
          "type": "address"
        },
        {
          "internalType": "uint256",
          "name": "startingPriceUSD",
          "type": "uint256"
        },
        {
          "internalType": "uint256",
          "name": "duration",
          "type": "uint256"
        }
      ],
      "name": "createAuction",
      "outputs": [
        {
          "internalType": "address",
          "name": "",
          "type": "address"
        }
      ],
      "stateMutability": "nonpayable",
      "type": "function"
    },
    {
      "inputs": [],
      "name": "getAllAuctions",
      "outputs": [
        {
          "internalType": "address[]",
          "name": "",
          "type": "address[]"
        }
      ],
      "stateMutability": "view",
      "type": "function"
    },
    {
      "inputs": [],
      "name": "getAuctionsCount",
      "outputs": [
        {
          "internalType": "uint256",
          "name": "",
          "type": "uint256"
        }
      ],
      "stateMutability": "view",
      "type": "function"
    },
    {
      "inputs": [],
      "name": "owner",
      "outputs": [
        {
          "internalType": "address",
          "name": "",
          "type": "address"
        }
      ],
      "stateMutability": "view",
      "type": "function"
    }
  ],
  "bytecode": "0x6080604052348015600f57600080fd5b50600180546001600160a01b031916331790556114da806100316000396000f3fe608060405234801561001057600080fd5b50600436106100575760003560e01c8063165c58811461005c57806333666ae51461008c5780638da5cb5b1461009f578063cbd2bdfd146100b2578063e45c1879146100c7575b600080fd5b61006f61006a3660046102d0565b6100d8565b6040516001600160a01b0390911681526020015b60405180910390f35b61006f61009a366004610305565b610102565b60015461006f906001600160a01b031681565b6100ba610261565b6040516100839190610377565b600054604051908152602001610083565b600081815481106100e857600080fd5b6000918252602090912001546001600160a01b0316905081565b6001546000906001600160a01b031633146101595760405162461bcd60e51b815260206004820152601360248201527213db9b1e481bdddb995c8818d85b8818d85b1b606a1b604482015260640160405180910390fd5b6000888888888888883360405161016f906102c3565b6001600160a01b039889168152602081019790975294871660408701529286166060860152908516608085015260a084015260c083015290911660e082015261010001604051809103906000f0801580156101ce573d6000803e3d6000fd5b50600080546001810182559080527f290decd9548b62a8d60345a988386fc84ba6bc95484008f6362f93160ef3e5630180546001600160a01b0319166001600160a01b038381169182179092556040518b8152929350908b16917f261f6e6830ed857876d5aa4eca876ccf116d09b91a6675e3e1a1920d53ef585e9060200160405180910390a398975050505050505050565b606060008054806020026020016040519081016040528092919081815260200182805480156102b957602002820191906000526020600020905b81546001600160a01b0316815260019091019060200180831161029b575b5050505050905090565b6110e1806103c483390190565b6000602082840312156102e257600080fd5b5035919050565b80356001600160a01b038116811461030057600080fd5b919050565b600080600080600080600060e0888a03121561032057600080fd5b610329886102e9565b96506020880135955061033e604089016102e9565b945061034c606089016102e9565b935061035a608089016102e9565b9699959850939692959460a0840135945060c09093013592915050565b602080825282518282018190526000918401906040840190835b818110156103b85783516001600160a01b0316835260209384019390920191600101610391565b50909594505050505056fe608060405234801561001057600080fd5b506040516110e13803806110e183398101604081905261002f916101ca565b604051806101400160405280896001600160a01b03168152602001888152602001876001600160a01b03168152602001826001600160a01b031681526020018481526020016000815260200160006001600160a01b03168152602001428152602001834261009d919061024e565b8152602001600090528051600080546001600160a01b03199081166001600160a01b039384161782556020840151600190815560408501516002805484169186169190911781556060860151600380548516918716919091179055608086015160045560a086015160055560c08601516006805490941695169490941790915560e08401516007556101008401516008556101208401516009805493949193909260ff1990911691849081111561015657610156610275565b021790555050600a80546001600160a01b0319166001600160a01b038881169190911790915587161590506101a157600b80546001600160a01b0319166001600160a01b0386161790555b505050505050505061028b565b80516001600160a01b03811681146101c557600080fd5b919050565b600080600080600080600080610100898b0312156101e757600080fd5b6101f0896101ae565b60208a0151909850965061020660408a016101ae565b955061021460608a016101ae565b945061022260808a016101ae565b60a08a015160c08b01519195509350915061023f60e08a016101ae565b90509295985092959890939650565b8082018082111561026f57634e487b7160e01b600052601160045260246000fd5b92915050565b634e487b7160e01b600052602160045260246000fd5b610e478061029a6000396000f3fe6080604052600436106100705760003560e01c8063a0a8045e1161004e578063a0a8045e1461010c578063d94a35051461012f578063e0d68d1a1461017a578063fe67a54b1461018f57600080fd5b8063454a2ab31461007557806355d64d031461008a5780638fa8b790146100f7575b600080fd5b610088610083366004610c61565b6101a4565b005b34801561009657600080fd5b506000546001546002546003546004546005546006546007546008546009546100d8996001600160a01b03908116999881169781169695941692919060ff168a565b6040516100ee9a99989796959493929190610c90565b60405180910390f35b34801561010357600080fd5b5061008861060a565b34801561011857600080fd5b50610121610898565b6040519081526020016100ee565b34801561013b57600080fd5b506000546001546002546003546004546005546006546007546008546009546001600160a01b03998a169997881697968716969093169260ff166100d8565b34801561018657600080fd5b5061012161091d565b34801561019b57600080fd5b506100886109b9565b600060095460ff1660028111156101bd576101bd610c7a565b146102025760405162461bcd60e51b815260206004820152601060248201526f20bab1ba34b7b7103737ba1037b832b760811b60448201526064015b60405180910390fd5b60085442106102435760405162461bcd60e51b815260206004820152600d60248201526c105d58dd1a5bdb88195b991959609a1b60448201526064016101f9565b60055481116102825760405162461bcd60e51b815260206004820152600b60248201526a42696420746f6f206c6f7760a81b60448201526064016101f9565b6004548110156102d45760405162461bcd60e51b815260206004820152601860248201527f4269642062656c6f77207374617274696e67207072696365000000000000000060448201526064016101f9565b6002546000906001600160a01b031661040f5760006102f1610898565b9050600081136103385760405162461bcd60e51b8152602060048201526012602482015271125b9d985b1a59081c1c9a58d9481999595960721b60448201526064016101f9565b8061034b84670de0b6b3a7640000610d11565b6103559190610d3c565b91508134101561039a5760405162461bcd60e51b815260206004820152601060248201526f092dce6eaccccd2c6d2cadce8408aa8960831b60448201526064016101f9565b6006546001600160a01b031615610409576006546005546001600160a01b03909116906108fc9083906103d590670de0b6b3a7640000610d11565b6103df9190610d3c565b6040518115909202916000818181858888f19350505050158015610407573d6000803e3d6000fd5b505b506105b9565b600061041961091d565b9050600081136104605760405162461bcd60e51b8152602060048201526012602482015271125b9d985b1a59081c1c9a58d9481999595960721b60448201526064016101f9565b8061047384670de0b6b3a7640000610d11565b61047d9190610d3c565b6002546040516323b872dd60e01b8152336004820152306024820152604481018390529193506001600160a01b0316906323b872dd906064016020604051808303816000875af11580156104d5573d6000803e3d6000fd5b505050506040513d601f19601f820116820180604052508101906104f99190610d5e565b506006546001600160a01b0316156105b7576002546006546005546001600160a01b039283169263a9059cbb921690849061053c90670de0b6b3a7640000610d11565b6105469190610d3c565b6040516001600160e01b031960e085901b1681526001600160a01b03909216600483015260248201526044016020604051808303816000875af1158015610591573d6000803e3d6000fd5b505050506040513d601f19601f820116820180604052508101906105b59190610d5e565b505b505b6005829055600680546001600160a01b031916339081179091556040518381527f3fabff0a9c3ecd6814702e247fa9733e5d0aa69e3a38590f92cb18f623a2254d9060200160405180910390a25050565b6003546001600160a01b0316331461065d5760405162461bcd60e51b815260206004820152601660248201527513db9b1e481cd95b1b195c8818d85b8818d85b98d95b60521b60448201526064016101f9565b600060095460ff16600281111561067657610676610c7a565b146106b65760405162461bcd60e51b815260206004820152601060248201526f20bab1ba34b7b7103737ba1037b832b760811b60448201526064016101f9565b6009805460ff19166002179055600054600354600154604051632142170760e11b81523060048201526001600160a01b03928316602482015260448101919091529116906342842e0e90606401600060405180830381600087803b15801561071d57600080fd5b505af1158015610731573d6000803e3d6000fd5b50506006546001600160a01b031615915061086d9050576002546001600160a01b03166107bc576006546001600160a01b03166108fc61076f610898565b60055461078490670de0b6b3a7640000610d11565b61078e9190610d3c565b6040518115909202916000818181858888f193505050501580156107b6573d6000803e3d6000fd5b5061086d565b6002546006546001600160a01b039182169163a9059cbb91166107dd61091d565b6005546107f290670de0b6b3a7640000610d11565b6107fc9190610d3c565b6040516001600160e01b031960e085901b1681526001600160a01b03909216600483015260248201526044016020604051808303816000875af1158015610847573d6000803e3d6000fd5b505050506040513d601f19601f8201168201806040525081019061086b9190610d5e565b505b6040517fa5fb31e47bd1eca58bf14a3312d5e6aeafdc4ee787c8ed348c15c2b092324d9390600090a1565b600080600a60009054906101000a90046001600160a01b03166001600160a01b031663feaf968c6040518163ffffffff1660e01b815260040160a060405180830381865afa1580156108ee573d6000803e3d6000fd5b505050506040513d601f19601f820116820180604052508101906109129190610da6565b509195945050505050565b6002546000906001600160a01b031661096f5760405162461bcd60e51b81526020600482015260146024820152730a0c2f2dacadce840e8ded6cadc40d2e6408aa8960631b60448201526064016101f9565b600b5460408051633fabe5a360e21b815290516000926001600160a01b03169163feaf968c9160048083019260a09291908290030181865afa1580156108ee573d6000803e3d6000fd5b6008544210156109ff5760405162461bcd60e51b8152602060048201526011602482015270105d58dd1a5bdb881b9bdd08195b991959607a1b60448201526064016101f9565b600060095460ff166002811115610a1857610a18610c7a565b14610a5d5760405162461bcd60e51b8152602060048201526015602482015274105d58dd1a5bdb88185b1c9958591e48195b991959605a1b60448201526064016101f9565b6009805460ff191660019081179091556000546006549154604051632142170760e11b81523060048201526001600160a01b03938416602482015260448101919091529116906342842e0e90606401600060405180830381600087803b158015610ac657600080fd5b505af1158015610ada573d6000803e3d6000fd5b50506002546001600160a01b03169150610b2f9050576003546040516001600160a01b03909116904780156108fc02916000818181858888f19350505050158015610b29573d6000803e3d6000fd5b50610c1a565b6002546040516370a0823160e01b81523060048201526000916001600160a01b0316906370a0823190602401602060405180830381865afa158015610b78573d6000803e3d6000fd5b505050506040513d601f19601f82011682018060405250810190610b9c9190610df8565b60025460035460405163a9059cbb60e01b81526001600160a01b03918216600482015260248101849052929350169063a9059cbb906044016020604051808303816000875af1158015610bf3573d6000803e3d6000fd5b505050506040513d601f19601f82011682018060405250810190610c179190610d5e565b50505b6006546005546040519081526001600160a01b03909116907fdaec4582d5d9595688c8c98545fdd1c696d41c6aeaeb636737e84ed2f5c00eda9060200160405180910390a2565b600060208284031215610c7357600080fd5b5035919050565b634e487b7160e01b600052602160045260246000fd5b6001600160a01b038b81168252602082018b9052898116604083015288811660608301526080820188905260a08201879052851660c082015260e081018490526101008101839052610140810160038310610cfb57634e487b7160e01b600052602160045260246000fd5b826101208301529b9a5050505050505050505050565b8082028115828204841417610d3657634e487b7160e01b600052601160045260246000fd5b92915050565b600082610d5957634e487b7160e01b600052601260045260246000fd5b500490565b600060208284031215610d7057600080fd5b81518015158114610d8057600080fd5b9392505050565b805169ffffffffffffffffffff81168114610da157600080fd5b919050565b600080600080600060a08688031215610dbe57600080fd5b610dc786610d87565b60208701516040880151606089015192975090955093509150610dec60808701610d87565b90509295509295909350565b600060208284031215610e0a57600080fd5b505191905056fea264697066735822122096e89c4e84ca320b075b0b94d5ef52013232e9a8ce82721d4acebfef121c36d964736f6c634300081c0033a2646970667358221220b14b42412ba817a627d1b6b4265f85396288d43dc1416a4e18964424cd47edd764736f6c634300081c0033",
  "linkReferences": {},
  "deployedLinkReferences": {}
}