{
  "_format": "hh-sol-artifact-1",
  "contractName": "NFTMarketplace",
  "sourceName": "contracts/NFTMarketplace.sol",
  "abi": [
    {
      "inputs": [
        {
          "internalType": "address",
          "name": "target",
          "type": "address"
        }
      ],
      "name": "AddressEmptyCode",
      "type": "error"
    },
    {
      "inputs": [
        {
          "internalType": "address",
          "name": "implementation",
          "type": "address"
        }
      ],
      "name": "ERC1967InvalidImplementation",
      "type": "error"
    },
    {
      "inputs": [],
      "name": "ERC1967NonPayable",
      "type": "error"
    },
    {
      "inputs": [
        {
          "internalType": "address",
          "name": "sender",
          "type": "address"
        },
        {
          "internalType": "uint256",
          "name": "tokenId",
          "type": "uint256"
        },
        {
          "internalType": "address",
          "name": "owner",
          "type": "address"
        }
      ],
      "name": "ERC721IncorrectOwner",
      "type": "error"
    },
    {
      "inputs": [
        {
          "internalType": "address",
          "name": "operator",
          "type": "address"
        },
        {
          "internalType": "uint256",
          "name": "tokenId",
          "type": "uint256"
        }
      ],
      "name": "ERC721InsufficientApproval",
      "type": "error"
    },
    {
      "inputs": [
        {
          "internalType": "address",
          "name": "approver",
          "type": "address"
        }
      ],
      "name": "ERC721InvalidApprover",
      "type": "error"
    },
    {
      "inputs": [
        {
          "internalType": "address",
          "name": "operator",
          "type": "address"
        }
      ],
      "name": "ERC721InvalidOperator",
      "type": "error"
    },
    {
      "inputs": [
        {
          "internalType": "address",
          "name": "owner",
          "type": "address"
        }
      ],
      "name": "ERC721InvalidOwner",
      "type": "error"
    },
    {
      "inputs": [
        {
          "internalType": "address",
          "name": "receiver",
          "type": "address"
        }
      ],
      "name": "ERC721InvalidReceiver",
      "type": "error"
    },
    {
      "inputs": [
        {
          "internalType": "address",
          "name": "sender",
          "type": "address"
        }
      ],
      "name": "ERC721InvalidSender",
      "type": "error"
    },
    {
      "inputs": [
        {
          "internalType": "uint256",
          "name": "tokenId",
          "type": "uint256"
        }
      ],
      "name": "ERC721NonexistentToken",
      "type": "error"
    },
    {
      "inputs": [],
      "name": "FailedCall",
      "type": "error"
    },
    {
      "inputs": [],
      "name": "InvalidInitialization",
      "type": "error"
    },
    {
      "inputs": [],
      "name": "NotInitializing",
      "type": "error"
    },
    {
      "inputs": [
        {
          "internalType": "address",
          "name": "owner",
          "type": "address"
        }
      ],
      "name": "OwnableInvalidOwner",
      "type": "error"
    },
    {
      "inputs": [
        {
          "internalType": "address",
          "name": "account",
          "type": "address"
        }
      ],
      "name": "OwnableUnauthorizedAccount",
      "type": "error"
    },
    {
      "inputs": [],
      "name": "UUPSUnauthorizedCallContext",
      "type": "error"
    },
    {
      "inputs": [
        {
          "internalType": "bytes32",
          "name": "slot",
          "type": "bytes32"
        }
      ],
      "name": "UUPSUnsupportedProxiableUUID",
      "type": "error"
    },
    {
      "anonymous": false,
      "inputs": [
        {
          "indexed": true,
          "internalType": "address",
          "name": "owner",
          "type": "address"
        },
        {
          "indexed": true,
          "internalType": "address",
          "name": "approved",
          "type": "address"
        },
        {
          "indexed": true,
          "internalType": "uint256",
          "name": "tokenId",
          "type": "uint256"
        }
      ],
      "name": "Approval",
      "type": "event"
    },
    {
      "anonymous": false,
      "inputs": [
        {
          "indexed": true,
          "internalType": "address",
          "name": "owner",
          "type": "address"
        },
        {
          "indexed": true,
          "internalType": "address",
          "name": "operator",
          "type": "address"
        },
        {
          "indexed": false,
          "internalType": "bool",
          "name": "approved",
          "type": "bool"
        }
      ],
      "name": "ApprovalForAll",
      "type": "event"
    },
    {
      "anonymous": false,
      "inputs": [
        {
          "indexed": false,
          "internalType": "uint64",
          "name": "version",
          "type": "uint64"
        }
      ],
      "name": "Initialized",
      "type": "event"
    },
    {
      "anonymous": false,
      "inputs": [
        {
          "indexed": true,
          "internalType": "address",
          "name": "previousOwner",
          "type": "address"
        },
        {
          "indexed": true,
          "internalType": "address",
          "name": "newOwner",
          "type": "address"
        }
      ],
      "name": "OwnershipTransferred",
      "type": "event"
    },
    {
      "anonymous": false,
      "inputs": [
        {
          "indexed": true,
          "internalType": "address",
          "name": "from",
          "type": "address"
        },
        {
          "indexed": true,
          "internalType": "address",
          "name": "to",
          "type": "address"
        },
        {
          "indexed": true,
          "internalType": "uint256",
          "name": "tokenId",
          "type": "uint256"
        }
      ],
      "name": "Transfer",
      "type": "event"
    },
    {
      "anonymous": false,
      "inputs": [
        {
          "indexed": true,
          "internalType": "address",
          "name": "implementation",
          "type": "address"
        }
      ],
      "name": "Upgraded",
      "type": "event"
    },
    {
      "inputs": [],
      "name": "UPGRADE_INTERFACE_VERSION",
      "outputs": [
        {
          "internalType": "string",
          "name": "",
          "type": "string"
        }
      ],
      "stateMutability": "view",
      "type": "function"
    },
    {
      "inputs": [
        {
          "internalType": "address",
          "name": "to",
          "type": "address"
        },
        {
          "internalType": "uint256",
          "name": "tokenId",
          "type": "uint256"
        }
      ],
      "name": "approve",
      "outputs": [],
      "stateMutability": "nonpayable",
      "type": "function"
    },
    {
      "inputs": [
        {
          "internalType": "address",
          "name": "owner",
          "type": "address"
        }
      ],
      "name": "balanceOf",
      "outputs": [
        {
          "internalType": "uint256",
          "name": "",
          "type": "uint256"
        }
      ],
      "stateMutability": "view",
      "type": "function"
    },
    {
      "inputs": [
        {
          "internalType": "address",
          "name": "to",
          "type": "address"
        },
        {
          "internalType": "uint256[]",
          "name": "tokenIds",
          "type": "uint256[]"
        }
      ],
      "name": "batchMint",
      "outputs": [],
      "stateMutability": "nonpayable",
      "type": "function"
    },
    {
      "inputs": [
        {
          "internalType": "uint256",
          "name": "tokenId",
          "type": "uint256"
        }
      ],
      "name": "getApproved",
      "outputs": [
        {
          "internalType": "address",
          "name": "",
          "type": "address"
        }
      ],
      "stateMutability": "view",
      "type": "function"
    },
    {
      "inputs": [
        {
          "internalType": "string",
          "name": "name",
          "type": "string"
        },
        {
          "internalType": "string",
          "name": "symbol",
          "type": "string"
        }
      ],
      "name": "initialize",
      "outputs": [],
      "stateMutability": "nonpayable",
      "type": "function"
    },
    {
      "inputs": [
        {
          "internalType": "address",
          "name": "owner",
          "type": "address"
        },
        {
          "internalType": "address",
          "name": "operator",
          "type": "address"
        }
      ],
      "name": "isApprovedForAll",
      "outputs": [
        {
          "internalType": "bool",
          "name": "",
          "type": "bool"
        }
      ],
      "stateMutability": "view",
      "type": "function"
    },
    {
      "inputs": [
        {
          "internalType": "address",
          "name": "to",
          "type": "address"
        },
        {
          "internalType": "uint256",
          "name": "tokenId",
          "type": "uint256"
        }
      ],
      "name": "mint",
      "outputs": [],
      "stateMutability": "nonpayable",
      "type": "function"
    },
    {
      "inputs": [],
      "name": "name",
      "outputs": [
        {
          "internalType": "string",
          "name": "",
          "type": "string"
        }
      ],
      "stateMutability": "view",
      "type": "function"
    },
    {
      "inputs": [],
      "name": "owner",
      "outputs": [
        {
          "internalType": "address",
          "name": "",
          "type": "address"
        }
      ],
      "stateMutability": "view",
      "type": "function"
    },
    {
      "inputs": [
        {
          "internalType": "uint256",
          "name": "tokenId",
          "type": "uint256"
        }
      ],
      "name": "ownerOf",
      "outputs": [
        {
          "internalType": "address",
          "name": "",
          "type": "address"
        }
      ],
      "stateMutability": "view",
      "type": "function"
    },
    {
      "inputs": [],
      "name": "proxiableUUID",
      "outputs": [
        {
          "internalType": "bytes32",
          "name": "",
          "type": "bytes32"
        }
      ],
      "stateMutability": "view",
      "type": "function"
    },
    {
      "inputs": [],
      "name": "renounceOwnership",
      "outputs": [],
      "stateMutability": "nonpayable",
      "type": "function"
    },
    {
      "inputs": [
        {
          "internalType": "address",
          "name": "from",
          "type": "address"
        },
        {
          "internalType": "address",
          "name": "to",
          "type": "address"
        },
        {
          "internalType": "uint256",
          "name": "tokenId",
          "type": "uint256"
        }
      ],
      "name": "safeTransfer",
      "outputs": [],
      "stateMutability": "nonpayable",
      "type": "function"
    },
    {
      "inputs": [
        {
          "internalType": "address",
          "name": "from",
          "type": "address"
        },
        {
          "internalType": "address",
          "name": "to",
          "type": "address"
        },
        {
          "internalType": "uint256",
          "name": "tokenId",
          "type": "uint256"
        }
      ],
      "name": "safeTransferFrom",
      "outputs": [],
      "stateMutability": "nonpayable",
      "type": "function"
    },
    {
      "inputs": [
        {
          "internalType": "address",
          "name": "from",
          "type": "address"
        },
        {
          "internalType": "address",
          "name": "to",
          "type": "address"
        },
        {
          "internalType": "uint256",
          "name": "tokenId",
          "type": "uint256"
        },
        {
          "internalType": "bytes",
          "name": "data",
          "type": "bytes"
        }
      ],
      "name": "safeTransferFrom",
      "outputs": [],
      "stateMutability": "nonpayable",
      "type": "function"
    },
    {
      "inputs": [
        {
          "internalType": "address",
          "name": "operator",
          "type": "address"
        },
        {
          "internalType": "bool",
          "name": "approved",
          "type": "bool"
        }
      ],
      "name": "setApprovalForAll",
      "outputs": [],
      "stateMutability": "nonpayable",
      "type": "function"
    },
    {
      "inputs": [
        {
          "internalType": "bytes4",
          "name": "interfaceId",
          "type": "bytes4"
        }
      ],
      "name": "supportsInterface",
      "outputs": [
        {
          "internalType": "bool",
          "name": "",
          "type": "bool"
        }
      ],
      "stateMutability": "view",
      "type": "function"
    },
    {
      "inputs": [],
      "name": "symbol",
      "outputs": [
        {
          "internalType": "string",
          "name": "",
          "type": "string"
        }
      ],
      "stateMutability": "view",
      "type": "function"
    },
    {
      "inputs": [
        {
          "internalType": "uint256",
          "name": "tokenId",
          "type": "uint256"
        }
      ],
      "name": "tokenURI",
      "outputs": [
        {
          "internalType": "string",
          "name": "",
          "type": "string"
        }
      ],
      "stateMutability": "view",
      "type": "function"
    },
    {
      "inputs": [
        {
          "internalType": "address",
          "name": "from",
          "type": "address"
        },
        {
          "internalType": "address",
          "name": "to",
          "type": "address"
        },
        {
          "internalType": "uint256",
          "name": "tokenId",
          "type": "uint256"
        }
      ],
      "name": "transferFrom",
      "outputs": [],
      "stateMutability": "nonpayable",
      "type": "function"
    },
    {
      "inputs": [
        {
          "internalType": "address",
          "name": "newOwner",
          "type": "address"
        }
      ],
      "name": "transferOwnership",
      "outputs": [],
      "stateMutability": "nonpayable",
      "type": "function"
    },
    {
      "inputs": [
        {
          "internalType": "address",
          "name": "newImplementation",
          "type": "address"
        },
        {
          "internalType": "bytes",
          "name": "data",
          "type": "bytes"
        }
      ],
      "name": "upgradeToAndCall",
      "outputs": [],
      "stateMutability": "payable",
      "type": "function"
    },
    {
      "inputs": [],
      "name": "version",
      "outputs": [
        {
          "internalType": "string",
          "name": "",
          "type": "string"
        }
      ],
      "stateMutability": "pure",
      "type": "function"
    }
  ],
  "bytecode": "0x60a060405230608052348015601357600080fd5b50608051611d1661003d60003960008181610c7e01528181610ca70152610de80152611d166000f3fe60806040526004361061014b5760003560e01c80636352211e116100b6578063ad3cb1cc1161006f578063ad3cb1cc146103cb578063b88d4fde146103fc578063c87b56dd1461041c578063d1660f991461043c578063e985e9c51461045c578063f2fde38b1461047c57600080fd5b80636352211e1461030457806370a0823114610324578063715018a6146103445780638da5cb5b1461035957806395d89b4114610396578063a22cb465146103ab57600080fd5b806342842e0e1161010857806342842e0e146102415780634684d7e9146102615780634cd88b76146102815780634f1ef286146102a157806352d1902d146102b457806354fd4d50146102d757600080fd5b806301ffc9a71461015057806306fdde0314610185578063081812fc146101a7578063095ea7b3146101df57806323b872dd1461020157806340c10f1914610221575b600080fd5b34801561015c57600080fd5b5061017061016b36600461165b565b61049c565b60405190151581526020015b60405180910390f35b34801561019157600080fd5b5061019a6104ee565b60405161017c91906116c8565b3480156101b357600080fd5b506101c76101c23660046116db565b610592565b6040516001600160a01b03909116815260200161017c565b3480156101eb57600080fd5b506101ff6101fa366004611710565b6105a7565b005b34801561020d57600080fd5b506101ff61021c36600461173a565b6105b6565b34801561022d57600080fd5b506101ff61023c366004611710565b610646565b34801561024d57600080fd5b506101ff61025c36600461173a565b610658565b34801561026d57600080fd5b506101ff61027c3660046117be565b610678565b34801561028d57600080fd5b506101ff61029c3660046118f9565b6106b7565b6101ff6102af366004611962565b6107be565b3480156102c057600080fd5b506102c96107d9565b60405190815260200161017c565b3480156102e357600080fd5b50604080518082019091526004815263076312e360e41b602082015261019a565b34801561031057600080fd5b506101c761031f3660046116db565b6107f6565b34801561033057600080fd5b506102c961033f36600461199a565b610801565b34801561035057600080fd5b506101ff61085d565b34801561036557600080fd5b507f9016d09d72d40fdae2fd8ceac6b6234c7706214fd39c1cd1e609a0528c199300546001600160a01b03166101c7565b3480156103a257600080fd5b5061019a610871565b3480156103b757600080fd5b506101ff6103c63660046119b5565b6108b0565b3480156103d757600080fd5b5061019a604051806040016040528060058152602001640352e302e360dc1b81525081565b34801561040857600080fd5b506101ff6104173660046119f1565b6108bb565b34801561042857600080fd5b5061019a6104373660046116db565b6108d3565b34801561044857600080fd5b506101ff61045736600461173a565b610948565b34801561046857600080fd5b50610170610477366004611a59565b610953565b34801561048857600080fd5b506101ff61049736600461199a565b6109a0565b60006001600160e01b031982166380ac58cd60e01b14806104cd57506001600160e01b03198216635b5e139f60e01b145b806104e857506301ffc9a760e01b6001600160e01b03198316145b92915050565b600080516020611ca1833981519152805460609190819061050e90611a8c565b80601f016020809104026020016040519081016040528092919081815260200182805461053a90611a8c565b80156105875780601f1061055c57610100808354040283529160200191610587565b820191906000526020600020905b81548152906001019060200180831161056a57829003601f168201915b505050505091505090565b600061059d826109de565b506104e882610a16565b6105b2828233610a50565b5050565b6001600160a01b0382166105e557604051633250574960e11b8152600060048201526024015b60405180910390fd5b60006105f2838333610a5d565b9050836001600160a01b0316816001600160a01b031614610640576040516364283d7b60e01b81526001600160a01b03808616600483015260248201849052821660448201526064016105dc565b50505050565b61064e610b67565b6105b28282610bc2565b610673838383604051806020016040528060008152506108bb565b505050565b610680610b67565b60005b8151811015610673576106af838383815181106106a2576106a2611ac6565b6020026020010151610bc2565b600101610683565b60006106c1610c27565b805490915060ff600160401b820416159067ffffffffffffffff166000811580156106e95750825b905060008267ffffffffffffffff1660011480156107065750303b155b905081158015610714575080155b156107325760405163f92ee8a960e01b815260040160405180910390fd5b845467ffffffffffffffff19166001178555831561075c57845460ff60401b1916600160401b1785555b6107668787610c50565b61076f33610c62565b83156107b557845460ff60401b19168555604051600181527fc7f505b2f371ae2175ee4913f4499e1f2633a7b5936321eed1cdaeb6115181d29060200160405180910390a15b50505050505050565b6107c6610c73565b6107cf82610d18565b6105b28282610d20565b60006107e3610ddd565b50600080516020611cc183398151915290565b60006104e8826109de565b6000600080516020611ca18339815191526001600160a01b03831661083c576040516322718ad960e21b8152600060048201526024016105dc565b6001600160a01b039092166000908152600390920160205250604090205490565b610865610b67565b61086f6000610e26565b565b7f80bb2b638cc20bc4d0a60d66940f3ab4a00c1d7b313497ca82fb0b4ab00793018054606091600080516020611ca18339815191529161050e90611a8c565b6105b2338383610e97565b6108c68484846105b6565b6106403385858585610f48565b60606108de826109de565b5060006108f660408051602081019091526000815290565b905060008151116109165760405180602001604052806000815250610941565b8061092084611073565b604051602001610931929190611adc565b6040516020818303038152906040525b9392505050565b610673838383610658565b6001600160a01b0391821660009081527f80bb2b638cc20bc4d0a60d66940f3ab4a00c1d7b313497ca82fb0b4ab00793056020908152604080832093909416825291909152205460ff1690565b6109a8610b67565b6001600160a01b0381166109d257604051631e4fbdf760e01b8152600060048201526024016105dc565b6109db81610e26565b50565b6000806109ea83611106565b90506001600160a01b0381166104e857604051637e27328960e01b8152600481018490526024016105dc565b60009081527f80bb2b638cc20bc4d0a60d66940f3ab4a00c1d7b313497ca82fb0b4ab007930460205260409020546001600160a01b031690565b6106738383836001611140565b6000600080516020611ca183398151915281610a7885611106565b90506001600160a01b03841615610a9457610a94818587611256565b6001600160a01b03811615610ad457610ab1600086600080611140565b6001600160a01b0381166000908152600383016020526040902080546000190190555b6001600160a01b03861615610b05576001600160a01b03861660009081526003830160205260409020805460010190555b600085815260028301602052604080822080546001600160a01b0319166001600160a01b038a811691821790925591518893918516917fddf252ad1be2c89b69c2b068fc378daa952ba7f163c4a11628f55a4df523b3ef91a495945050505050565b33610b997f9016d09d72d40fdae2fd8ceac6b6234c7706214fd39c1cd1e609a0528c199300546001600160a01b031690565b6001600160a01b03161461086f5760405163118cdaa760e01b81523360048201526024016105dc565b6001600160a01b038216610bec57604051633250574960e11b8152600060048201526024016105dc565b6000610bfa83836000610a5d565b90506001600160a01b03811615610673576040516339e3563760e11b8152600060048201526024016105dc565b6000807ff0c57e16840df040f15088dc2f81fe391c3923bec73e23a9662efc9c229c6a006104e8565b610c586112ba565b6105b282826112df565b610c6a6112ba565b6109db81611310565b306001600160a01b037f0000000000000000000000000000000000000000000000000000000000000000161480610cfa57507f00000000000000000000000000000000000000000000000000000000000000006001600160a01b0316610cee600080516020611cc1833981519152546001600160a01b031690565b6001600160a01b031614155b1561086f5760405163703e46dd60e11b815260040160405180910390fd5b6109db610b67565b816001600160a01b03166352d1902d6040518163ffffffff1660e01b8152600401602060405180830381865afa925050508015610d7a575060408051601f3d908101601f19168201909252610d7791810190611b0b565b60015b610da257604051634c9c8ce360e01b81526001600160a01b03831660048201526024016105dc565b600080516020611cc18339815191528114610dd357604051632a87526960e21b8152600481018290526024016105dc565b6106738383611318565b306001600160a01b037f0000000000000000000000000000000000000000000000000000000000000000161461086f5760405163703e46dd60e11b815260040160405180910390fd5b7f9016d09d72d40fdae2fd8ceac6b6234c7706214fd39c1cd1e609a0528c19930080546001600160a01b031981166001600160a01b03848116918217845560405192169182907f8be0079c531659141344cd1fd0a4f28419497f9722a3daafe3b4186f6b6457e090600090a3505050565b600080516020611ca18339815191526001600160a01b038316610ed857604051630b61174360e31b81526001600160a01b03841660048201526024016105dc565b6001600160a01b038481166000818152600584016020908152604080832094881680845294825291829020805460ff191687151590811790915591519182527f17307eab39ab6107e8899845ad3d59bd9653f200f220920489ca2b5937696c31910160405180910390a350505050565b6001600160a01b0383163b1561106c57604051630a85bd0160e11b81526001600160a01b0384169063150b7a0290610f8a908890889087908790600401611b24565b6020604051808303816000875af1925050508015610fc5575060408051601f3d908101601f19168201909252610fc291810190611b61565b60015b61102e573d808015610ff3576040519150601f19603f3d011682016040523d82523d6000602084013e610ff8565b606091505b50805160000361102657604051633250574960e11b81526001600160a01b03851660048201526024016105dc565b805181602001fd5b6001600160e01b03198116630a85bd0160e11b1461106a57604051633250574960e11b81526001600160a01b03851660048201526024016105dc565b505b5050505050565b606060006110808361136e565b600101905060008167ffffffffffffffff8111156110a0576110a0611777565b6040519080825280601f01601f1916602001820160405280156110ca576020820181803683370190505b5090508181016020015b600019016f181899199a1a9b1b9c1cb0b131b232b360811b600a86061a8153600a85049450846110d457509392505050565b60009081527f80bb2b638cc20bc4d0a60d66940f3ab4a00c1d7b313497ca82fb0b4ab007930260205260409020546001600160a01b031690565b600080516020611ca1833981519152818061116357506001600160a01b03831615155b15611225576000611173856109de565b90506001600160a01b0384161580159061119f5750836001600160a01b0316816001600160a01b031614155b80156111b257506111b08185610953565b155b156111db5760405163a9fbf51f60e01b81526001600160a01b03851660048201526024016105dc565b82156112235784866001600160a01b0316826001600160a01b03167f8c5be1e5ebec7d5bd14f71427d1e84f3dd0314c0f7b2291e5b200ac8c7c3b92560405160405180910390a45b505b600093845260040160205250506040902080546001600160a01b0319166001600160a01b0392909216919091179055565b611261838383611446565b610673576001600160a01b03831661128f57604051637e27328960e01b8152600481018290526024016105dc565b60405163177e802f60e01b81526001600160a01b0383166004820152602481018290526044016105dc565b6112c26114ac565b61086f57604051631afcd79f60e31b815260040160405180910390fd5b6112e76112ba565b600080516020611ca1833981519152806113018482611bc5565b50600181016106408382611bc5565b6109a86112ba565b611321826114c6565b6040516001600160a01b038316907fbc7cd75a20ee27fd9adebab32041f755214dbc6bffa90cc0225b39da2e5c2d3b90600090a280511561136657610673828261152b565b6105b26115a1565b60008072184f03e93ff9f4daa797ed6e38ed64bf6a1f0160401b83106113ad5772184f03e93ff9f4daa797ed6e38ed64bf6a1f0160401b830492506040015b6d04ee2d6d415b85acef810000000083106113d9576d04ee2d6d415b85acef8100000000830492506020015b662386f26fc1000083106113f757662386f26fc10000830492506010015b6305f5e100831061140f576305f5e100830492506008015b612710831061142357612710830492506004015b60648310611435576064830492506002015b600a83106104e85760010192915050565b60006001600160a01b038316158015906114a45750826001600160a01b0316846001600160a01b0316148061148057506114808484610953565b806114a45750826001600160a01b031661149983610a16565b6001600160a01b0316145b949350505050565b60006114b6610c27565b54600160401b900460ff16919050565b806001600160a01b03163b6000036114fc57604051634c9c8ce360e01b81526001600160a01b03821660048201526024016105dc565b600080516020611cc183398151915280546001600160a01b0319166001600160a01b0392909216919091179055565b6060600080846001600160a01b0316846040516115489190611c84565b600060405180830381855af49150503d8060008114611583576040519150601f19603f3d011682016040523d82523d6000602084013e611588565b606091505b50915091506115988583836115c0565b95945050505050565b341561086f5760405163b398979f60e01b815260040160405180910390fd5b6060826115d5576115d08261161c565b610941565b81511580156115ec57506001600160a01b0384163b155b1561161557604051639996b31560e01b81526001600160a01b03851660048201526024016105dc565b5080610941565b80511561162c5780518082602001fd5b60405163d6bda27560e01b815260040160405180910390fd5b6001600160e01b0319811681146109db57600080fd5b60006020828403121561166d57600080fd5b813561094181611645565b60005b8381101561169357818101518382015260200161167b565b50506000910152565b600081518084526116b4816020860160208601611678565b601f01601f19169290920160200192915050565b602081526000610941602083018461169c565b6000602082840312156116ed57600080fd5b5035919050565b80356001600160a01b038116811461170b57600080fd5b919050565b6000806040838503121561172357600080fd5b61172c836116f4565b946020939093013593505050565b60008060006060848603121561174f57600080fd5b611758846116f4565b9250611766602085016116f4565b929592945050506040919091013590565b634e487b7160e01b600052604160045260246000fd5b604051601f8201601f1916810167ffffffffffffffff811182821017156117b6576117b6611777565b604052919050565b600080604083850312156117d157600080fd5b6117da836116f4565b9150602083013567ffffffffffffffff8111156117f657600080fd5b8301601f8101851361180757600080fd5b803567ffffffffffffffff81111561182157611821611777565b8060051b6118316020820161178d565b9182526020818401810192908101908884111561184d57600080fd5b6020850194505b8385101561187357843580835260209586019590935090910190611854565b80955050505050509250929050565b600082601f83011261189357600080fd5b81356020830160008067ffffffffffffffff8411156118b4576118b4611777565b50601f8301601f19166020016118c98161178d565b9150508281528583830111156118de57600080fd5b82826020830137600092810160200192909252509392505050565b6000806040838503121561190c57600080fd5b823567ffffffffffffffff81111561192357600080fd5b61192f85828601611882565b925050602083013567ffffffffffffffff81111561194c57600080fd5b61195885828601611882565b9150509250929050565b6000806040838503121561197557600080fd5b61197e836116f4565b9150602083013567ffffffffffffffff81111561194c57600080fd5b6000602082840312156119ac57600080fd5b610941826116f4565b600080604083850312156119c857600080fd5b6119d1836116f4565b9150602083013580151581146119e657600080fd5b809150509250929050565b60008060008060808587031215611a0757600080fd5b611a10856116f4565b9350611a1e602086016116f4565b925060408501359150606085013567ffffffffffffffff811115611a4157600080fd5b611a4d87828801611882565b91505092959194509250565b60008060408385031215611a6c57600080fd5b611a75836116f4565b9150611a83602084016116f4565b90509250929050565b600181811c90821680611aa057607f821691505b602082108103611ac057634e487b7160e01b600052602260045260246000fd5b50919050565b634e487b7160e01b600052603260045260246000fd5b60008351611aee818460208801611678565b835190830190611b02818360208801611678565b01949350505050565b600060208284031215611b1d57600080fd5b5051919050565b6001600160a01b0385811682528416602082015260408101839052608060608201819052600090611b579083018461169c565b9695505050505050565b600060208284031215611b7357600080fd5b815161094181611645565b601f82111561067357806000526020600020601f840160051c81016020851015611ba55750805b601f840160051c820191505b8181101561106c5760008155600101611bb1565b815167ffffffffffffffff811115611bdf57611bdf611777565b611bf381611bed8454611a8c565b84611b7e565b6020601f821160018114611c275760008315611c0f5750848201515b600019600385901b1c1916600184901b17845561106c565b600084815260208120601f198516915b82811015611c575787850151825560209485019460019092019101611c37565b5084821015611c755786840151600019600387901b60f8161c191681555b50505050600190811b01905550565b60008251611c96818460208701611678565b919091019291505056fe80bb2b638cc20bc4d0a60d66940f3ab4a00c1d7b313497ca82fb0b4ab0079300360894a13ba1a3210667c828492db98dca3e2076cc3735a920a3ca505d382bbca2646970667358221220c2c663a292b25d66959ccd3f644f46209500408565bb93859d319d4f304624cc64736f6c634300081c0033",
  "linkReferences": {},
  "deployedLinkReferences": {}
}